:1000000004308A00E42C000042308400831300088E
:10001000031917280230F800F701F70B0D28F80B29
:100020000C289730F700F70B1328800B0A280800DC
:10003000221047182214C708031923288316061014
:100040008312061427288316061083120610080050
:10005000A2104718A214C708031933288316861064
:1000600083128614372883168610831286100800A0
:10007000221147182215C7080319432883160611B1
:1000800083120615472883160611831206110800ED
:10009000C70128204B28460EF039F7000F30220503
:1000A0007704A2008316860183122208860058284E
:1000B0000130C70038205C285D28C70138200800BF
:1000C000420EC4000F30C4054208C500F03083164C
:1000D00086008312C70118206D280130C700282030
:1000E00071280130C70038207528831686178312BF
:1000F0004610861B4614C70138207E280130C700F1
:1001000038208228C70138200030831686008312E9
:1001100046180130F800F808031D66284308C70098
:10012000182092284408C60048204508C6004820E8
:1001300008000F30C2000420C70118209F28033098
:10014000C60048200530C20004200330C600482005
:100150000530C20004200330C60048200530C2002C
:1001600004200230C60048202030C200C3016020B5
:100170000C30C200C30160200130C200C301602006
:100180000630C200C30160208A11082D41080C3CD2
:10019000031DD2280130C200C30160200230C2001A
:1001A0000420D7284108C2000130C30060200800A5
:1001B0001030C400F701FA01C10CC00C031CE62882
:1001C0004208F7070318FA0A4308FA07FA0CF70C73
:1001D000F90CF80CC40BDC2808008E30F70043083B
:1001E000F8004208F900FA01F808031D012979080E
:1001F000F800F9010830F702F808031D0129F7019A
:1002000009290310F81B0829F90DF80DF703012936
:10021000F813080042080319CF29CE004608031935
:10022000CF29CE02031C19297F30CE070318CF290E
:100230001F298130CE02031CCF290319CF294E0874
:10024000F700F801F901FA01CD014308CC00CC1701
:100250004408CB004508CA001930CE004908CA023C
:10026000031842290130CB0203184229CC0203189B
:100270004229CD0203184229CD0ACC0ACB0A4908EB
:10028000CA0774294808CB0203185D290130CC0243
:1002900003185D29CD0203185D29CD0ACC0A480850
:1002A000CB074908CA07031C7429CB0A031D74290C
:1002B000CC0A031D7429CD0A742947088038CC0262
:1002C000031873290130CD0203187329CD0A47089A
:1002D0008038CC074808CB07031C5129CC0A031DE2
:1002E0005129CD0A51297A14CE0B7729822903107E
:1002F000CA0DCB0DCC0DCD0D0310FA0DF90DF80D77
:10030000CF0D2E294F1C8A290310F80CF90CFA0C7A
:10031000CF0C8D29F7030319CF29CF1BB629031062
:10032000CA0DCB0DCC0DCD0D4908CA020318A22968
:100330000130CB020318A229CC020318A229CD0256
:10034000031CC5294808CB020318AD290130CC0293
:100350000318AD29CD02031CC52947088038CC02FB
:100360000318B6290130CD02031CC529FA0A031D62
:10037000C529F90A031DC529F80A031DC529F70A6D
:100380000319CF29F80CF90CFA0C4308CE004708E2
:10039000CE06CE1FCD29F817D329F813D329F7019C
:1003A000F801F901FA0108004D080319442AD500A3
:1003B00051080319442AD5070318E5297F30D502CF
:1003C000031C442A0319442AE9298130D50703185C
:1003D000442A5508F700F801F901FA014E08D9003E
:1003E000D9174F08D8005008D7001830D500D601CB
:1003F000571C122A5408FA07031C042AF90A031D81
:10040000042AF80A0319D6175308F907031C0B2A04
:10041000F80A0319D6175208CF00CF174F08F8076C
:100420000318D617D60DF80CF90CFA0CD90CD80C09
:10043000D70C0310D50BF7290130F7070318442A0E
:10044000F81B292AD90DFA0DF90DF80DF703031938
:10045000442AD91F3A2AFA0A031D3A2AF90A031D27
:100460003A2AF80A031D3A2AF80CF90CFA0CF70A92
:100470000319442A4E08D6005208D606D61F422A2F
:10048000F817482AF813482AF701F801F901FA0188
:10049000080080308318C906CE01CF014508CD0081
:1004A0004908CD0644080319392BCC00F700480849
:1004B0000319422BCC020319DE2A031C9C2A49088B
:1004C000D200D2174A08D1004B08D000CF01031048
:1004D000D20CD10CD00CCF0CCC0B662ACD1F732ABA
:1004E0004E14562B4E104C104E164730840083137A
:1004F0006B2B4E12CD1B862A4C1C912AD20CD10C90
:10050000D00CCF0CF70A0319512B912AD21B942A35
:100510000310CF0DD00DD10DD20DF7030319512BC0
:10052000862A4E17FE2A4E134508CD00CD1F9A2A63
:10053000D2174A2BD2134A2B4808CC00F7004408A4
:10054000CC024508D200D2174608D1004708D00097
:10055000CF010310D20CD10CD00CCF0CCC0BA82A9D
:10056000CD1FB52ACE14562BCE104C10CE164B30C4
:10057000840083136B2BCE12CD1BC82A4C1CD32AAC
:10058000D20CD10CD00CCF0CF70A0319512BD32A63
:10059000D21BD62A0310CF0DD00DD10DD20DF703EB
:1005A0000319512BC82ACE17FE2ACE134908CD00B5
:1005B000CD1FDC2AD2174A2BD2134A2B4908D2006E
:1005C000D2174A08D1004B08D000CD1FEB2AD21316
:1005D0004E15562B4E11CF014C104730840083131B
:1005E0006B2BCD1B142B4508CD004C1CFE2AD20CC6
:1005F000D10CD00CCF0CF70A0319512BCF1F0F2BA6
:10060000D00A031D0F2BD10A031D0F2BD20A031D85
:100610000F2BD20CD10CD00CF70A0319512B4E1B07
:10062000932ACE1BD52A332B8030D206D21F1C2B07
:10063000562B4908CD00292B4508CD00D208031DB3
:10064000292BD108031D292BD008031D292BF701C5
:100650004A2BD21B332B0310CF0DD00DD10DD20D51
:10066000F70B292B512BCD1F372BD2174A2BD21327
:100670004A2B4808F7004908D2004A08D1004B0825
:10068000D0004A2B4408F7004508D2004608D100A4
:100690004708D0005208F8005108F9005008FA0045
:1006A000892BF701F801F901FA01892BCF01D00953
:1006B000D109D209CF09CF0A031D642BD00A031D2B
:1006C000642BD10A0319D20A4E18722ACE18B42A02
:1006D0004E19EA2A192B0008D007031C752BD10AE2
:1006E000031D752BD20A03194C1484030008D1078B
:1006F000031C7D2BD20A03194C1484030008801FAD
:10070000803AD20703184C144E1A792ACE1ABB2A03
:10071000F12A080083188F2B553084008313F701CA
:10072000F801F901FA01D501D601D701D801540821
:100730005304520451040319CD2B2030D900031067
:10074000CD0DCE0DCF0DD00DD50DD60DD70DD80DAD
:1007500054085802031DB62B53085702031DB62B2D
:1007600052085602031DB62B51085502031CC72B15
:100770005108D5025208031C520FD6025308031C1D
:10078000530FD7025408031C540FD8020314F70D5B
:10079000F80DF90DFA0DD90B9F2B55088000840A2E
:1007A00056088000840A57088000840A5808800090
:1007B0000800230884008313241883174D08800041
:1007C000840A8001A30A0319A40A08000408C500CA
:1007D0004408C7000319052C4308D0004208CF0085
:1007E0004108CE004008CD00D401D3012030D20012
:1007F0008230D100D4217A08C3007908C200780879
:10080000C1007708C000C70BEC2B4308D00042089A
:10081000CF004108CE004008CD004D08B63CCD00C9
:10082000FA014E08D100CE170310CE0CCF0CD00C1D
:10083000FA0CF90CF80CF70CCD0B142CD11F2B2C47
:10084000F709F809F909FA09F70A0319F80A031967
:10085000F90A0319FA0A7A08C3007908C20078086D
:10086000C1007708C000C31F422CC503C516C009CC
:10087000C109C209C309C00A0319C10A0319C20A7E
:100880000319C30A3B30CC009A30CB00CA30CA00EF
:10089000C9010A30C70044080319C50A831440304F
:1008A000840083134308D0004208CF004108CE00E3
:1008B0004008CD004C08D4004B08D3004A08D200B1
:1008C0004908D1008A237808F708031D7A2C440AC6
:1008D000470203197A2C450803197C2C0F3947026B
:1008E0000319742C0318AC2CC51BAC2C451B7C2C99
:1008F0002030A82C2030C505C51E8A2CC5124408FE
:10090000031DC5037708C5002D30CD00D923450848
:10091000F700C50144084702031D982C7708C5005D
:100920002E30CD00D9234508F7002030C505003012
:100930003030C51EA82CC5124408031DC503770816
:10094000C5002D30CD00D9234508F700C501303052
:10095000F7077708CD00D92383104C08D0004B0847
:10096000CF004A08CE004908CD00D401D301D201FE
:100970000A30D1008A237A08CC007908CB007808A5
:10098000CA007708C900C70B4E2C08004108C300F5
:100990004008C2004308FA004208840083137A1812
:1009A000831780080319D82CC20A0319C30ACA2C5A
:1009B00040084202F7004308FA004108031C410FB7
:1009C000FA027708F800080003081F398300A40121
:1009D000A30183161F129F121B0880399B0007304A
:1009E0009C0083138312A001A101723083168F0033
:1009F0000F081F129F121B0880390F389B001F170A
:100A000083121F179F1383169F1783121F14992891
:100A10000C30C100C6205730C100C6206530C1006F
:100A2000C6206C30C100C6206330C100C6206F30C4
:100A3000C100C6206D30C100C6206530C100C6208F
:100A40000430C000FA30C2000420C00B222D083050
:100A5000F8001F08C73978049F000130C200042045
:100A60001F151F19312D83161E088312B9001E0889
:100A7000BA003A08033C031CFA2D031D432D390824
:100A8000FE3C031CFA2D3A08C1003908C000C3011E
:100A90000530C200D8207908C1007808C000790864
:100AA000C3007808C200ED207A08C5007908C400A8
:100AB0007808C3007708C200C901C801C70189309E
:100AC000C6000A217A08C3007908C2007808C1006C
:100AD0007708C0007A08D0007908CF007808CE00E7
:100AE0007708CD00D401D301D2018030D100D421C8
:100AF0007A08BE007908BD007808BC007708BB0002
:100B000083143E08C7003D08C6003C08C5003B08EA
:100B1000C400CB01CA012030C9008030C80049227E
:100B20007A08C3007908C2007808C1007708C000BD
:100B30007A08D0007908CF007808CE007708CD0079
:100B4000D401D3012030D2008330D100D4217A08DF
:100B5000C3007908C2007808C1007708C00083107C
:100B60007A08C7007908C6007808C5007708C4006D
:100B7000AF30CB009930CA004C30C9007D30C8007E
:100B800049227A08BE007908BD007808BC007708C1
:100B9000BB000C30C100C620A4012530A300893061
:100BA00084003E08C3003D08C2003C08C1003B0869
:100BB000C0000630C400E623BF01C1012530C000DB
:100BC000C62478083F020318EF2D25303F07840024
:100BD00083130008C000C100C620BF0ADD2D5630B7
:100BE000C100C6200430C000FA30C2000420C00B8F
:100BF000F42D972F1030F8001F08C73978049F0094
:100C00000130C20004201F151F19042E83161E0870
:100C10008312B9001E08BA003A08033C031CCE2E0A
:100C2000031D162E3908FE3C031CCE2E3A08C100C7
:100C30003908C000C3010530C200D8207908C100BE
:100C40007808C0007908C3007808C200ED207A084F
:100C5000C5007908C4007808C3007708C200C9013C
:100C6000C801C7018930C6000A217A08C300790883
:100C7000C2007808C1007708C0007A08D00079085F
:100C8000CF007808CE007708CD00D401D301203002
:100C9000D2008130D100D4217A08BE007908BD008D
:100CA0007808BC007708BB0083143E08C7003D08E5
:100CB000C6003C08C5003B08C400CB01CA01203077
:100CC000C9008030C80049227A08C3007908C200F0
:100CD0007808C1007708C0007A08D0007908CF00F2
:100CE0007808CE007708CD00D401D3012030D2009F
:100CF0008330D100D4217A08C3007908C200780873
:100D0000C1007708C00083107A08C7007908C600C0
:100D10007808C5007708C400AF30CB009930CA000E
:100D20004C30C9007D30C80049227A08BE007908DD
:100D3000BD007808BC007708BB000C30C100C6209D
:100D4000A4012530A300893084003E08C3003D087B
:100D5000C2003C08C1003B08C0000630C400E623C6
:100D6000BF01C1012530C000C62478083F02031826
:100D7000C32E25303F07840083130008C000C10044
:100D8000C620BF0AB12E5630C100C6200430C000B4
:100D9000FA30C2000420C00BC82E972F1830F8007C
:100DA0001F08C73978049F000130C20004201F15B6
:100DB0001F19D82E83161E088312B9001E08BA0008
:100DC0003A08C1003908C000C3010530C200D8206C
:100DD0007908C1007808C0007908C3007808C2000B
:100DE000ED207A08C5007908C4007808C3007708A8
:100DF000C200C901C801C7018930C6000A217A08AA
:100E0000C3007908C2007808C1007708C0007A08DA
:100E1000D0007908CF007808CE007708CD00D40143
:100E2000D3011030D2008230D100D4217A08BE0024
:100E30007908BD007808BC007708BB0083143E0821
:100E4000C7003D08C6003C08C5003B08C400CB01F4
:100E5000CA012030C9008030C80049227A08C30086
:100E60007908C2007808C1007708C0007A08D0006D
:100E70007908CF007808CE007708CD00D401D301DF
:100E80002030D2008330D100D4217A08C300790801
:100E9000C2007808C1007708C00083107A08C70034
:100EA0007908C6007808C5007708C400AF30CB00C9
:100EB0009930CA004C30C9007D30C80049227A08F8
:100EC000BE007908BD007808BC007708BB000C3074
:100ED000C100C620A4012530A300893084003E084B
:100EE000C3003D08C2003C08C1003B08C0000630FA
:100EF000C400E623BF01C1012530C000C624780824
:100F00003F0203188D2F25303F078400831300080C
:100F1000C000C100C620BF0A7B2F5630C100C620CA
:100F20000430C000FA30C2000420C00B922F272DDD
:020F300063005C
:04400E00503FFF3FE1
:00000001FF
;PIC16F88
;CRC=ADBA  CREATED="11-Mar-23 23:53"
